:020000040800F2
:10000000080E002039020008A50E0008F50D0008B2
:10001000A10E000871080008DB1C000800000000A9
:10002000000000000000000000000000591300085C
:100030007508000800000000751000088914000809
:10004000530200085302000853020008530200083C
:10005000530200085302000853020008530200082C
:1000600053020008530200089909000853020008CF
:10007000530200085302000853020008530200080C
:1000800053020008530200085302000853020008FC
:1000900053020008530200085302000853020008EC
:1000A00053020008530200085302000853020008DC
:1000B00053020008530200085302000853020008CC
:1000C00053020008530200085302000853020008BC
:1000D0005302000839180008BD180008351A000836
:1000E000530200085302000853020008530200089C
:1000F000530200085302000853020008530200088C
:10010000530200085302000853020008530200087B
:10011000530200085302000853020008530200086B
:10012000530200085302000853020008530200085B
:10013000530200085302000853020008530200084B
:10014000530200085302000853020008530200083B
:10015000530200085302000853020008530200082B
:10016000530200085302000853020008530200081B
:10017000530200085302000853020008530200080B
:10018000530200085302000800F002F800F044F89F
:100190000AA090E8000C82448344AAF10107DA45E2
:1001A00001D100F039F8AFF2090EBAE80F0013F0F0
:1001B000010F18BFFB1A43F0010318476431000018
:1001C00084310000103A24BF78C878C1FAD85207A9
:1001D00024BF30C830C144BF04680C6070470000C1
:1001E0000023002400250026103A28BF78C1FBD840
:1001F000520728BF30C148BF0B607047642900F028
:10020000AD80732900F04582002070471FB503F0D0
:1002100081F81FBD10B510BD00F03FFA1146FFF781
:10022000F5FF02F069F900F05DFA03B4FFF7F2FFA1
:1002300003BC00F065FA0000094880470948004700
:10024000FEE7FEE7FEE7FEE7FEE7FEE7FEE7FEE786
:10025000FEE7FEE704480549054A064B70470000E3
:100260008D1400088901000808080020080E0020ED
:10027000080A0020080A00200FB41CB5074B06AA84
:100280007B4469460090059800F0D9F90020694642
:1002900000F0E8F91CBC5DF814FB0000E10300006D
:1002A0002DE9F0410E460446002020622046E16818
:1002B000884730B3252805D0D4E901219047206A2A
:1002C000401CF2E7E168204600278847050018D067
:1002D000A5F14100192802D820354FF400673246B5
:1002E000294620462760FFF789FF40B1012804D046
:1002F000F61D26F007060836D8E7361DD6E728464D
:10030000DAE7206ABDE8F08170B50C460546012A9F
:1003100005D02878800600D5EA69002302E0012391
:1003200005E05B1C934202D2E05C0028F9D1A86989
:10033000E618C01AA861286A184428622846AFF354
:10034000008004E0D5E9012114F8010B9047B44284
:10035000F8D32846AFF3008070BD00002DE9F041CE
:100360000646002410687529314616A510D0AFF353
:100370000080002802DA404213A507E031688A07AE
:1003800001D512A502E0490704D511A5012401E019
:10039000AFF3008000210A2206F1240709E0B0FB38
:1003A000F2FCB0FBF2F302FB1C003030785418462C
:1003B000491C0028F3D123462A463046BDE8F041C7
:1003C00000F0DFB8000000002D0000002B0000004E
:1003D0002000000040EA010370B59B072ED14FF0CA
:1003E0000136042A2AD308C810C99D1B9D43121F39
:1003F00015EAC61517D0D8B2E1B2401A50EA056125
:1004000010D198B2A1B2401A50EA05410AD123F0A6
:100410007F4024F07F41401A50EA052102D1180E96
:10042000A0EB146070BDA342DBD018BA21BA884299
:1004300001D9012070BD4FF0FF3070BD0AB9002016
:1004400070BD10F8013B11F8014B63B1A3420AD112
:10045000521E08D010F8013B11F8014B1BB1A3420A
:1004600001D1521EEDD1181B70BD4FF000020429BE
:10047000C0F0128010F0030C00F01B80CCF1040CD3
:10048000BCF1020F18BF00F8012BA8BF20F8022B07
:10049000A1EB0C0100F00DB85FEAC17C24BF00F8AD
:1004A000012B00F8012B48BF00F8012B70474FF0DB
:1004B000000200B5134694469646203922BFA0E8B4
:1004C0000C50A0E80C50B1F12001BFF4F7AF0907C0
:1004D00028BFA0E80C5048BF0CC05DF804EB8900B1
:1004E00028BF40F8042B08BF704748BF20F8022BF4
:1004F00011F0804F18BF00F8012B70474FF0013CFE
:1005000050F8042B51F8043B9A4221D1A2EB0C0382
:10051000934313EACC1317D150F8042B51F8043B42
:100520009A4215D1A2EB0C03934313EACC130BD1DF
:1005300050F8042B51F8043B9A4209D1A2EB0C036A
:10054000934313EACC13DBD04FF00000704700BF99
:10055000D01A01BAB1FA81F101F0180122FA01F0C2
:10056000CB40C1F12001DBB2C0B2C01A2CFA01F3BA
:10057000D11A914311EAC311E6D170477047704711
:1005800070472DE9F0470D4699469246044600F122
:1005900024080168880604D5E06921F01001216073
:1005A00000E00120A84201DD471B00E00027A1690F
:1005B0007A1902EB0900081AA0612078C00602D45B
:1005C0002046AFF30080002608E0D4E901211AF8A4
:1005D00006009047206A401C761C20624E45F4DBE2
:1005E0002078C0060AD52046AFF3008006E0D4E9A3
:1005F000012130209047206A401C2062381EA7F15C
:100600000107F4DC07E0D4E9012118F80500904760
:10061000206A401C2062281EA5F10105F3DC20465B
:10062000AFF300802078000602D50220BDE8F087F5
:100630000120FBE701694A1C02610878704700B598
:100640008FB0CDE901310021059105497944CDE90B
:10065000031011466846FFF723FE0FB000BD0000EF
:10066000E5FFFFFF0A6802F8010B0A60704710B54A
:10067000436913B1AFF3008001E0FFF745FE0120AD
:1006800010BD127800F124010A7000224A70012284
:10069000EDE711684FF0FF32E9E7754600F02CF8FE
:1006A000AE4605006946534620F00700854618B05F
:1006B00020B5FFF7CFFDBDE820404FF000064FF01A
:1006C00000074FF000084FF0000B21F00701AC4687
:1006D000ACE8C009ACE8C009ACE8C009ACE8C009A6
:1006E0008D46704710B50446AFF300802046BDE844
:1006F0001040FFF79ABD000000487047A407002093
:1007000001491820ABBEFEE726000200704700003A
:1007100070B50446206807287DD2DFE800F09A040F
:1007200026486A9A8E0094ED010AB5EEC00AF1EEF1
:1007300010FA07D294ED010AFFEE000A20EE200A1B
:1007400084ED010AD4ED010AB0EE600AC82001F080
:10075000FFFC01E002F0CEF8444800780028F9D010
:10076000002042490870012070BD94ED010AB5EEE9
:10077000C00AF1EE10FA07D294ED010AFFEE000A6A
:1007800020EE200A84ED010AD4ED010AB0EE600AE1
:10079000C82001F03FFE01E002F0ACF833480078D9
:1007A0000028F9D00020314908700120DCE794EDE1
:1007B000010AB5EEC00AF1EE10FA07D294ED010A73
:1007C000FFEE000A20EE200A84ED010AD4ED010AB2
:1007D000B0EE600AC82001F06BFF01E002F08AF879
:1007E000224800780028F9D0002020490870012014
:1007F000BAE794ED010AB5EEC00AF1EE10FA07D29D
:1008000094ED010AFFEE000A20EE200A84ED010AB1
:10081000D4ED010A00E01CE0B0EE600AC82001F04F
:1008200037FB01E002F066F8104800780028F9D0A4
:1008300000200E490870012096E7638A228AE18928
:10084000A08901F0A5FF40F2DC5001F003FC01207B
:100850008AE7B42300225A212D2001F099FF40F2AB
:10086000DC5001F0F7FB00207EE70000450000208F
:1008700000BFFEE77047000030B5A1B004460D464A
:100880000BA001F0C1F84FF47A7001F0E3FB00F027
:1008900033F82B4622460AA101A8FFF7EDFC01A878
:1008A00001F0B2F840F6B83001F0D4FB21B030BD11
:1008B00041542B43574D4F44453D320D0A00000033
:1008C00041542B43575341503D222573222C22255E
:1008D00073222C352C330D0A0000000010B504A043
:1008E00001F092F84FF47A7001F0B4FB10BD0000F3
:1008F00041540D0A0000000010B504A001F084F876
:100900004FF47A7001F0A6FB10BD000041542B5249
:1009100053540D0A0000000010B590B004460EA01C
:1009200001F072F84FF47A7001F094FB11A001F01D
:100930006BF84FF47A7001F08DFB224611A16846E6
:10094000FFF79AFC684601F05FF84FF4FA6001F097
:1009500081FB10B010BD000041542B434950415061
:100960003D223139322E3136382E342E31220D0AC5
:100970000000000041542B4349504D55583D310D66
:100980000A00000041542B434950534552564552EA
:100990003D312C25640D0A0010B50A2001F05AFBE8
:1009A0001021164800F019FA28B91548007880F08F
:1009B000010013490870012000F035F9012001F011
:1009C00049FB0F480078012808D101F0FFFC002006
:1009D0000C49086001200C49087004E000200B4914
:1009E00008600B490860B42300225A212D2001F031
:1009F000CFFE102000F00EF810BD000000100240E5
:100A00000800002000000020090000206C000020E9
:100A1000040000200149086070470000143C0140B8
:100A2000002123498279002A3AD00A4612680368D5
:100A30009A430B461A600A1D126803689A430B1DFD
:100A40001A60027911440A6803681A430A60184A56
:100A50000832126803689A43154B08331A601A1D4E
:100A6000126803689A43124B0C331A604279102AB9
:100A70000ED11A1F126803681A430D4B08331A600F
:100A80001A1D126803681A43094B0C331A600DE0F3
:100A90000749427911440A6803681A430A6005E06D
:100AA000027911440A6803689A430A60704700009B
:100AB000003C01402DE9FF4706460F461546984683
:100AC000DDE90D9A0C9C00200090019002900390AB
:100AD0008DF80060FD208DF801008DF8027028125D
:100AE0008DF80300E8B28DF804008DF80580200E23
:100AF0008DF80600200C8DF80700200A8DF80800FC
:100B0000E0B28DF809008DF80A908DF80BA06B20EB
:100B10008DF80C000D21684601F018FFBDE8FF8735
:100B20007FB506460D4600240020009001900290FB
:100B300003900DF80460641C112D68D2DFE805F005
:100B4000090F151B672167272D33393F6745515C16
:100B50004B001F200DF80400601CC4B258E0202098
:100B60000DF80400601CC4B252E021200DF804000E
:100B7000601CC4B24CE024200DF80400601CC4B218
:100B800046E027200DF80400601CC4B240E031208C
:100B90000DF80400601CC4B23AE033200DF80400E4
:100BA000601CC4B234E035200DF80400601CC4B2EF
:100BB0002EE036200DF80400601CC4B228E0372077
:100BC0000DF80400601CC4B222E03A200DF80400C5
:100BD000601CC4B21CE03B200DF80400601CC4B2D1
:100BE00016E042200DF80400601CC4B26C200DF821
:100BF0000400601CC4B20BE043200DF80400601C2C
:100C0000C4B27A200DF80400601CC4B200E000BF3A
:100C100000BF6B200DF80400601CC4B2214668467A
:100C200001F094FE7FBD1FB50446002000900190A6
:100C3000029003908DF800400A208DF801006D208D
:100C40008DF802006B208DF803000421684601F046
:100C50007DFE1FBD7FB505460C460020009001902B
:100C6000029003908DF80050FE208DF8010098202E
:100C70008DF802008DF803406B208DF804000521EB
:100C8000684601F063FE7FBD1FB50446002000905A
:100C90000190029003908DF80040FF208DF8010034
:100CA00066208DF802006B208DF803000421684651
:100CB00001F04CFE1FBD2DE9FF4105460F461446CD
:100CC0001E46DDF8288000200090019002900390DD
:100CD0008DF80050F6208DF801008DF8027020127A
:100CE0008DF80300E0B28DF804008DF805608DF8F2
:100CF00006806B208DF807000821684601F026FE6B
:100D0000BDE8FF81F0B50A4600210023002400BFA2
:100D10003DE0012505FA01F3156805EA03049C424C
:100D200034D105684F000326BE40B54305601579F0
:100D30004E00B5400668354305601579012D02D097
:100D40001579022D16D185684F000326BE40B543A4
:100D5000856055794E00B5408668354385604568A5
:100D600001268E40B5434560456896798E40B6B2FF
:100D700035434560C5684F000326BE40B543C56096
:100D8000D5794E00B540C6683543C560491C102969
:100D9000BFD3F0BDF0B5002300244D07ED0E02FADD
:100DA00005F3CE1000F1200555F826504E07F70E3A
:100DB0000F26BE40B543CF1000F1200646F827505D
:100DC000CE1000F1200555F8265045EA0304CE1058
:100DD00000F1200545F82640F0BD024600201369C9
:100DE0000B400BB1012000E00020704741837047A9
:100DF0000183704700BFFEE7002101609FED040AF8
:100E000080ED010A81608181C1810182704700000B
:100E1000000000001FB50121102000F02DF9002076
:100E20008DF80C001020029001208DF80F00032097
:100E30008DF80D0002A90D48FFF764FF012188031A
:100E400000F03AF90421084600F088FA10200090DA
:100E500001208DF8060000208DF804000C208DF88C
:100E600005006846FFF7DCFD1FBD000000100240D2
:100E70001CB50121082000F0FFF801208DF80400C6
:100E80002820009002208DF8070003208DF805002F
:100E900069460248FFF736FF1CBD0000000C024007
:100EA00000BFFEE77047000070B5002100230F224D
:100EB000C4781CB3174C246804F4E064C4F5E064FF
:100EC000C4F30721C1F10404E3B20A4144789C4011
:100ED000E1B28478144021430C07210E0E4C0578B2
:100EE0006155047804F01F050124AC4005786D11AC
:100EF000AD0005F1E025C5F8004109E0047804F0F3
:100F00001F050124AC40054D0678761145F82640B2
:100F100070BD00000CED00E000E400E080E100E0C6
:100F200002490143024A1160704700000000FA05BF
:100F30000CED00E000B58BB00121042000F09CF81E
:100F40000121022000F0A8F8022206214748FFF7FD
:100F500021FF022207214548FFF71CFF022208213A
:100F60004248FFF717FF022209214048FFF712FF0E
:100F7000C020099002208DF828008DF8290000205B
:100F80008DF82A008DF82B0009A93848FFF7BAFE22
:100F90004FF44070099002208DF828008DF8290048
:100FA00000208DF82A008DF82B0009A92F48FFF7A3
:100FB000A9FE44F61F6007905320ADF818000020EA
:100FC000ADF82000ADF81A0006A9294800F0F2FBA0
:100FD0006020ADF804000120ADF806000020039069
:100FE000ADF8100001A9224800F090FA082120482D
:100FF00000F0CAFA6020ADF804000120ADF8060048
:1010000000200390ADF8100001A9194800F0C6FABD
:101010000821174800F014FB6020ADF804000120FF
:10102000ADF8060000200390ADF8100001A91048AB
:1010300000F014FB08210E4800F060FB6020ADF8C2
:1010400004000120ADF8060000200390ADF8100068
:1010500001A9074800F05CFB0821054800F094FB5B
:101060000121034800F046FA0BB000BD0008024021
:10107000000400407047000029B1064A126802438C
:10108000044B1A6004E0034A12688243014B1A6061
:10109000704700003038024029B1064A1268024306
:1010A000044B1A6004E0034A12688243014B1A6041
:1010B000704700004038024029B1064A12680243D6
:1010C000044B1A6004E0034A12688243014B1A6021
:1010D0007047000044380240F0B50021002200248F
:1010E000022500260223324F3F6807F00C0121B190
:1010F000042905D0082937D105E02E4F076036E0D6
:101100002D4F076033E02A4F3F1F3F68C7F38056DB
:10111000274F3F1F3F6807F03F036EB1264FB7FBD5
:10112000F3F7DFF88CC0ACF1040CDCF800C0CCF3B2
:10113000881C07FB0CF40CE01E4FB7FBF3F7DFF83D
:1011400070C0ACF1040CDCF800C0CCF3881C07FBC9
:101150000CF4174F3F1F3F68C7F301477F1C7D000A
:10116000B4FBF5F7076002E0124F076000BF00BF55
:101170000F4F3F6807F0F0010909104F7A5C0768CC
:10118000D74047600A4F3F6807F4E051890A0B4F88
:101190007A5C4768D7408760054F3F6807F4604135
:1011A000490B064F7A5C4768D740C760F0BD000026
:1011B000083802400024F40000127A007B0000206E
:1011C00070B5044623480078A0B12348007834F86D
:1011D0001000401E2049097824F811001E480078AC
:1011E00034F8100005282BDA05201B49097824F86B
:1011F000110025E01848007834F81000401C16490A
:10120000097824F811001448007801280DD11248FB
:10121000007834F81000B0F5877F06DD4FF4877052
:101220000D49097824F811000AE00B48007834F8D9
:101230001000B42804DDB4200749097824F811000F
:10124000E388A2886188208801F0A2FA0A2000F0D1
:1012500001FF70BD580000205900002010B5044661
:101260006078413808284AD2DFE800F0040D161FE4
:10127000282C343C2348007808B1002010BD01F030
:101280000CF80120FAE71F48007808B10020F5E7C4
:1012900000F0D0FF0420F1E71A48007808B10020E0
:1012A000ECE701F02DF80220E8E71648007808B1D5
:1012B0000020E3E701F057F80320DFE701F086F8AC
:1012C0000520DBE70020104908701048FFF778FF81
:1012D0000620D3E701200C4908700C48FFF770FF87
:1012E0000620CBE70A48007838B10A480078401C4D
:1012F000084908700020064908700820BEE7002051
:10130000BCE70000690000205800002050000020C9
:10131000680000205900002010B50B48007888B103
:10132000002004E00949095C094A1154401C0728BF
:10133000F8DB0020044908700121064800F0FEFB9C
:10134000012010BD0020FCE73D0000201D00002012
:1013500074000020004400407047000030B50022B7
:101360008B071C0F0F2303FA04F20B4B8C1053F85E
:1013700024309343084C8D1044F8253023468C10BC
:1013800053F824308C07240F00FA04F42343024C52
:101390008D1044F8253030BD083801400CB50020D0
:1013A000019000903448006840F480303249086071
:1013B00000BF3148006800F4003000900198401CE4
:1013C0000190009818B90198B0F5A04FF1D12A48C2
:1013D000006800F4003010B10120009001E000200E
:1013E00000900098012846D123484030006840F022
:1013F00080502149403108602048006840F4404056
:101400001E4908601C48083000681B490831086004
:101410000846006840F4004008600846006840F450
:10142000A05008601648091F0860081F006840F0B7
:101430008070091F086000BF0F48006800F000704E
:101440000028F9D040F205700E4908600A480830BB
:10145000006820F003000849083108600846006869
:1014600040F00200086000BF03480830006800F048
:101470000C000828F8D10CBD003802400070004074
:1014800008544007003C02407047000010B5154862
:10149000006840F47000134908601348006840F089
:1014A00001001149086000200F49083108600E480A
:1014B00000680E4908400C4908600D48091D086085
:1014C000081F006820F48020091F086000200649DA
:1014D0000C310860FFF762FF4FF00060014980396E
:1014E000086010BD88ED00E000380240FFFFF6FE06
:1014F0001030002421B1028842F00102028004E091
:1015000002884FF6FE731A400280704770B50024BF
:1015100000220023058C4FF6FE7635400584028CB0
:101520008388048B4FF68F752C40B51E2C400D8898
:101530002C43751E2A408D892A434D882A43104D1D
:10154000A84202D00F4DA84213D14FF6F7752A409A
:10155000CD892A434FF6FB752A408D882A434FF6E2
:10156000FF652B404FF6FF552B400D8A2B434D8ACC
:101570002B43838004838D684563028470BD000023
:1015800000000140000401400A460021018B4FF693
:10159000F7731940114301837047000070B50024B0
:1015A00000220023058C4FF6EF7635400584028C2F
:1015B0008388048B48F6FF752C404FF6FF452C407E
:1015C0000D884FF6FF7606EA05252C434FF6DF75AA
:1015D0002A408D8906EA05152A434D8806EA051535
:1015E0002A43154DA84202D0144DA8421DD14FF6F2
:1015F0007F752A40CD894FF6FF7606EA05152A4306
:101600004FF6BF752A408D8806EA05152A434FF626
:10161000FF352B404FF2FF752B400D8A06EA8505FA
:101620002B434D8A06EA85052B43838004838D680E
:101630008563028470BD0000000001400004014089
:101640000A460021018B4FF2FF7319404FF6FF73DA
:1016500003EA0223194301837047000070B5002498
:1016600000220023058C4FF6FF6635400584028C6E
:101670008388848B4FF68F752C404FF6FC752C4079
:101680000D882C434FF6FF552A408D894FF6FF7683
:1016900006EA05252A434D8806EA05252A43154D05
:1016A000A84202D0144DA8421DD14FF2FF752A4026
:1016B000CD894FF6FF7606EA05252A434FF6FF351A
:1016C0002A408D8806EA05252A434EF6FF752B40F1
:1016D0004DF6FF752B400D8A06EA05152B434D8A02
:1016E00006EA05152B43838084838D68C5630284D5
:1016F00070BD000000000140000401400A460021C6
:10170000818B4FF6F77319401143818370470000B6
:1017100070B5002200230024058C4EF6FF7635407C
:101720000584038C8488828B48F6FF752A404FF627
:10173000FF452A400D884FF6FF7606EA05252A4325
:101740004DF6FF752B408D8906EA05352B434D88F4
:1017500006EA05352B430A4DA84202D0094DA8429E
:1017600008D14BF6FF752C400D8A4FF6FF7606EA3E
:1017700085152C43848082838D680564038470BD45
:1017800000000140000401400A460021818B4FF215
:10179000FF7319404FF6FF7303EA02231943818355
:1017A00070474163704781637047C163704701644C
:1017B0007047000000220288184B98420ED0184B48
:1017C00098420BD0B0F1804F08D0164B984205D00C
:1017D000154B984202D0154B984204D14FF68F73A7
:1017E0001A404B881A43124B984207D0114B98422B
:1017F00004D04FF6FF431A400B891A4302804B680E
:10180000C3620B880385054B984202D0044B984273
:1018100001D18B7A03860123838270470000014047
:10182000000401400004004000080040000C00409B
:10183000001000400014004008B50020009040F265
:1018400025511A4800F086F950B118498988C8B264
:1018500000F048FC40F22551144800F060F924E003
:1018600040F22441114800F075F9F0B10F480088AA
:101870000E48808800F04EFC0D4908700020009052
:101880000AE000F017FC0B49BDF800208854BDF8B1
:101890000000401C80B20090BDF8000004490978A7
:1018A0008842EEDB01200449087008BD00100140A9
:1018B0000D000020A00500200C00002010B540F213
:1018C00025514C4800F046F9002876D0494800F0F0
:1018D000FBF9494908704948006805286FD2DFE8DC
:1018E00000F003202B3641004348007824280AD119
:1018F00041480078424908700120404908600020B2
:10190000404908700CE000203D490870487088701C
:10191000C870087148718871384908603949087081
:101920005BE035480078364948700220334908604A
:1019300000203449087050E02F4800783049887002
:1019400003202E49086000202E49087045E02A48EF
:1019500000782B49C87004202849086000202949D4
:1019600008703AE024480078402818D122480078CE
:10197000234908710020214908600120214908708D
:1019800040F225511B4800F0C1F840F2255119489A
:1019900000F0C5F80021174800F0D0F80CE0002056
:1019A0001749087048708870C8700871487188714C
:1019B00012490860134908700FE019E0FFE70020A2
:1019C0000F49087048708870C87008714871887134
:1019D0000A4908600B49087000BF00BF40F225515A
:1019E000044800F093F840F22551024800F097F8BF
:1019F00010BD0000004400401C0000201800002022
:101A00001D0000203D00002010B504460BE000BF83
:101A10000748008800F080000028F9D014F8011B66
:101A2000034800F056F920780028F0D110BD0000DE
:101A30000044004010B540F225512B4800F08AF8D0
:101A4000D0B12948001D00882849294A12688854C5
:101A500027480068401C2649086026492348FEF7AD
:101A60004DFD18B9224800682349086040F225510D
:101A70001D4800F04BF835E040F224411A4800F0D0
:101A800069F878B3184800881748001D00881B487B
:101A9000184902681548FEF79DFCE0B91448006833
:101AA00015490968401A401E1049497A3039884260
:101AB00011D1002004E00D49095C114A1154401C69
:101AC0000B4909688842F6DD01200E490870084874
:101AD00000680D49086040210448FEF7C6FC00205C
:101AE0000349086010BD0000004800406006002067
:101AF00010000020320000201400002040000020D0
:101B0000200600203C0000202400002001F4007288
:101B1000B2F5007F00D100BFCA430280704710B504
:101B20000022002340F66A14A14200D100BF0A122D
:101B300001249440A3B2DC43048010BD21B182890A
:101B400042F40052828104E082894DF6FF731A400C
:101B50008281704770B502460024002300250020D2
:101B600040F66A16B14200D100BFC1F3421501F040
:101B70001F03012606FA03F3012D02D19689334093
:101B800006E0022D02D1168A334001E0968A3340E6
:101B90000C12012606FA04F41688344013B10CB175
:101BA000012000E0002070BDF0B5034600240026AF
:101BB0000025002040F66A17B94200D100BF184640
:101BC000C1F3421401F01F06012707FA06F5012CA4
:101BD00001D10C3004E0022C01D1103000E01430AF
:101BE0001AB107682F43076002E00768AF43076038
:101BF000F0BD00002DE9FF4705460E460024A14632
:101C000000BFA046B08900B100BF2C8A24F4405424
:101C1000F08804432C82AC8941F20C608443B08884
:101C200031890843718908430443AC81AC8A24F4A8
:101C30004074B0890443AC826846FFF74DFA2048EF
:101C4000854202D01F48854202D1DDF80C9001E0A8
:101C5000DDF80890A88900F4004040B109EBC90004
:101C600000EB091031684900B0FBF1F707E009EB20
:101C7000C90000EB091031688900B0FBF1F764205E
:101C8000B7FBF0F004012009642101FB1078A8895A
:101C900000F4004040B1322000EBC800B0FBF1F08E
:101CA00000F00700044308E0322000EB0810642134
:101CB000B0FBF1F000F00F0004432C81BDE8FF877A
:101CC000001001400014014001468888C0F308005C
:101CD0007047C1F308028280704700BFFEE7000032
:101CE00010B504465E48FFF7B9FAFFF715FB20B1BF
:101CF0005B48FFF7B3FA5B4908605A480068B0B127
:101D000058480068052812D05648006808280ED0A8
:101D100054480068206053480068062802D101201A
:101D20005149087000204F490860012010BD4D48FE
:101D30000068052865D101204C49087000204949F8
:101D4000086049480078A8B149480078042809DBB0
:101D50000020474908704449087046480068401C04
:101D6000444908600120FEF75EFF012000F072F98F
:101D70000020DBE700BF0A210120FEF7D1FE012091
:101D800000F068F900BF3C4800780028FBD03B48D1
:101D90000078012834D139484078362830D1374886
:101DA000C0796B282CD13548C078000633490979B1
:101DB00040EA01403149497940EA01202F498979B7
:101DC00008432F490860084690ED000AB8EEC00AA3
:101DD000DFED2C0A80EE201A2B4880ED001A90EDE2
:101DE000000A84ED010A0120FEF71DFF012000F02A
:101DF00031F920480068401C1E490860012095E721
:101E0000B9E718480068082827D10020154908605C
:101E1000206820B90620206001201349087014486A
:101E20000078012806D0022808D003280AD0042808
:101E300010D10BE015480088A0810BE013484088C2
:101E4000E08107E011488088208203E00F48C088C5
:101E5000608200BF00BF002068E7002066E7000046
:101E6000740000205C000020690000206800002051
:101E7000590000206C0000200C000020A00500206C
:101E80006400002000008047700000205000002007
:101E900010B52DED028B84B0B0EE408A04469FED64
:101EA000320A28EE000ADFED310A80EE201AB3EE86
:101EB000000A21EE000A2E4880ED000A90ED000A8B
:101EC000BCEEC00A2B4880ED000A01200021294AFF
:101ED0001268CDE900210290A2B2C4230146FEF7A8
:101EE000E9FD012000F0B6F801210020214A126826
:101EF000CDE900200291A2B2C42301460220FEF7E0
:101F0000D9FD012000F0A6F801200021194A12682D
:101F1000CDE900210290A2B2C42301460320FEF7BE
:101F2000C9FD012000F096F801210020114A126835
:101F3000CDE900200291A2B2C42301460420FEF79D
:101F4000B9FD012000F086F80020FEF79DFE01207B
:101F500000F080F801200849087000F07BF804B018
:101F6000BDEC028B10BD00000000B4436666E63F86
:101F70004C000020480000204400002010B500F074
:101F800057FB00F007F800F0F7FCFEF743FFFEF701
:101F90006FFF10BD10B501210320FFF76DF801217F
:101FA0001020FFF789F801214804FFF775F8012197
:101FB0008804FFF771F8072209210E48FEF7EAFEB0
:101FC00007220A210B48FEF7E5FE072202210948F5
:101FD000FEF7E0FE072203210648FEF7DBFE07229C
:101FE0000A210548FEF7D6FE07220B210248FEF71C
:101FF000D1FE10BD000002400004024010B50446AE
:1020000009212046FEF78CFD012000F023F80E4840
:102010000078A04217D10C484078352813D10B48DE
:10202000007806280FD10848807848B90648C0785B
:1020300030B90548007918B901200549087002E057
:1020400000200349087010BDA00500200D000020ED
:102050004500002008B5002100916FF07F414FF04E
:10206000E0225161002191610521116114E00021FC
:102070004FF0E02291610E4909684FF47A72B1FB8A
:10208000F2F1C1F18071009100BF4FF0E021896948
:10209000009A9142F9D8401E0028E8DC4FF0E02178
:1020A000096921F001014FF0E022116108BD000033
:1020B0008C00002000200A4991F80111084A32F8EA
:1020C0001100114691F80111491C82F801111146C5
:1020D00091F80111802902DB002182F8011170477B
:1020E000A00600200A4991F80011094A22F81100BF
:1020F000114691F80011491C82F80011114691F81F
:102100000011802902DB002182F8001170470000D5
:10211000A00600200D4890F801010C4991F800112B
:10212000884208DC094890F80001084991F801113B
:10213000401A80B27047054890F80101C0F1800054
:10214000024991F80011084480B2F3E7A00600208C
:1021500010B52DED028B84B0B0EE408A04469FEDA1
:10216000300A28EE000ADFED2F0A80EE201AB3EEC7
:10217000000A21EE000A2C4880ED000A90ED000ACA
:10218000BCEEC00A294880ED000A01200021274A40
:102190001268CDE900210290A2B2C423FEF78AFCA6
:1021A0000120FFF757FF01210020204A1268CDE9E6
:1021B00000200291A2B2C4230220FEF77BFC012082
:1021C000FFF748FF01200021184A1268CDE90021DD
:1021D0000290A2B2C4230320FEF76CFC0120FFF79B
:1021E00039FF01210020114A1268CDE90020029137
:1021F000A2B2C4230420FEF75DFC0120FFF72AFFF2
:102200000020FEF741FD0120FFF724FF01200849CF
:102210000870FFF71FFF04B0BDEC028B10BD00007B
:102220000000B4436666E63F4C00002048000020F2
:102230004400002008B501200023C8220146009078
:10224000FEF739FD0120FFF705FF01200023C8221A
:10225000194600900220FEF72EFD0120FFF7FAFE3E
:1022600001200023C822014600900320FEF723FD31
:102270000120FFF7EFFE01200023C822194600903D
:102280000420FEF718FD0120FFF7E4FE0020FEF712
:10229000FBFC0120FFF7DEFE08BD08B5012000238E
:1022A000C82219460090FEF706FD0120FFF7D2FE76
:1022B00001200023C822014600900220FEF7FBFC0B
:1022C0000120FFF7C7FE01200023C8221946009015
:1022D0000320FEF7F0FC0120FFF7BCFE01200023E5
:1022E000C822014600900420FEF7E5FC0120FFF71C
:1022F000B1FE0020FEF7C8FC0120FFF7ABFE08BDD1
:1023000008B501200023642201460090FEF7D3FCAB
:102310000120FFF79FFE0120002364220146009068
:102320000220FEF7C8FC0120FFF794FE01200023E5
:102330006422014600900320FEF7BDFC0120FFF758
:1023400089FE012000236422014600900420FEF74C
:10235000B2FC0120FFF77EFE0020FEF795FC012075
:10236000FFF778FE08BD08B5012000236422194656
:102370000090FEF7A0FC0120FFF76CFE0120002377
:102380006422194600900220FEF795FC0120FFF719
:1023900061FE012000236422194600900320FEF70D
:1023A0008AFC0120FFF756FE012000236422194613
:1023B00000900420FEF77FFC0120FFF74BFE002079
:1023C000FEF762FC0120FFF745FE08BD10B50121B4
:1023D0000846FEF73FFC0120FFF73CFE01210220EA
:1023E000FEF738FC0120FFF735FE01210320FEF740
:1023F00031FC0120FFF72EFE01210420FEF72AFC0C
:102400000120FFF727FE0020FEF73EFC0120FFF72A
:1024100021FE10BD10B52DED028B84B0B0EE408AC8
:1024200004469FED300A28EE000ADFED2F0A80EE09
:10243000201AB3EE000A21EE000A2C4880ED000AB3
:1024400090ED000ABCEEC00A294880ED000A012088
:102450000021274A1268CDE900210290A2B2C423CC
:102460000146FEF727FB0120FFF7F4FD01210020C4
:102470001F4A1268CDE900200291A2B2C4230220B3
:10248000FEF718FB0120FFF7E5FD01200021184AA7
:102490001268CDE900210290A2B2C42301460320B4
:1024A000FEF708FB0120FFF7D5FD01210020104AAF
:1024B0001268CDE900200291A2B2C4230420FEF7E5
:1024C000F9FA0120FFF7C6FD0020FEF7DDFB012031
:1024D000FFF7C0FD01200749087004B0BDEC028B76
:1024E00010BD00000000B4436666E63F4C000020CB
:1024F0004800002044000020002042490860FFF707
:102500003DFDFEF717FDB42300225A212D2000F0D7
:102510003FF9002207E002EB82013B4B03EB810015
:10252000FEF76AFC521C092AF5DBFEF7D7F937A142
:1025300039A0FEF7A1F941F69070FEF7EDF940F2EF
:10254000DC50FFF787FD0120FEF76DFB0120FFF750
:1025500081FD55E03148007838B308213048FEF756
:1025600045FC10E02F49096801EB8101264A02EB86
:102570008100FEF741FC2B480068401C2949086097
:102580000A20FFF767FD274800684028EADB202182
:102590002348FEF72DFC2449096801EB81011A4A02
:1025A00002EB8100FFF79CFB2AE020211C48FEF78C
:1025B0001DFC1E48007860B1B42300225A212D2052
:1025C00000F0E6F840F2DC50FFF744FD0020174928
:1025D000087008211248FEF70BFC0A49096801EB54
:1025E0008101094A02EB8100FEF792F828B1054803
:1025F0000068401C0349086002E0002001490860AF
:10260000A8E7000000000020A00000203132333491
:1026100035363738390000004341520008000020A9
:10262000000C0240040000206C0000200900002083
:1026300008B54FF44070FEF773FC01208DF80300DD
:1026400000208DF802008DF8010025208DF8000093
:102650006846FEF729FC01208DF8030000208DF864
:10266000020001208DF8010026208DF80000684648
:10267000FEF71AFC01208DF8030000208DF80200FF
:1026800001208DF8010027208DF800006846FEF734
:102690000BFC0A208DF8000001208DF803008DF856
:1026A000010000208DF802006846FEF7FDFB08BD22
:1026B00010B52DED028B84B0B0EE408A04469FED3C
:1026C0002F0A28EE000ADFED2E0A80EE201AB3EE64
:1026D000000A21EE000A2B4880ED000A90ED000A66
:1026E000BCEEC00A284880ED000A01200021264ADD
:1026F0001268CDE900210290A2B2C423FEF7DAF9F4
:102700000120FFF7A7FC012100201F4A1268CDE934
:1027100000200291A2B2C42301460220FEF7CAF9AA
:102720000120FFF797FC01200021174A1268CDE92C
:1027300000210290A2B2C4230320FEF7BBF90120BE
:10274000FFF788FC012100200F4A1268CDE9002024
:102750000291A2B2C42301460420FEF7ABF9012086
:10276000FFF778FC0020FEF78FFA01200749087078
:10277000FFF770FC04B0BDEC028B10BD0000B44349
:102780006666E63F4C000020480000204400002020
:102790002DE9F05F2DED088B07460C4615461E46C9
:1027A000384600F0BCFB41EC1B0B9FED490B53EC92
:1027B000102B00F02FFA41EC1A0B9FED470B53EC56
:1027C000102B00F0BFFB41EC190B9FED450B53ECB8
:1027D000102B00F077F941EC180B00F073FB1FFA97
:1027E00080F8204600F09BFB41EC1B0B9FED3E0B5D
:1027F00053EC102B00F00EFA41EC1A0B9FED360B48
:1028000053EC102B00F09EFB41EC190B9FED340BA9
:1028100053EC102B00F056F941EC180B00F052FB72
:102820001FFA80F9284600F07AFB41EC1B0B9FED64
:102830002E0B53EC102B00F0EDF941EC180B9FED33
:10284000260B53EC102B00F07DFB41EC1A0B9FED97
:10285000240B53EC102B00F035F941EC190B00F070
:1028600031FB1FFA80FA304600F059FB41EC1B0B9C
:102870009FED1D0B53EC102B00F0CCF941EC1A0B23
:102880009FED150B53EC102B00F05CFB41EC190B8A
:102890009FED130B53EC102B00F014F941EC180BC7
:1028A00000F010FB1FFA80FB41461148FEF779FF4C
:1028B00049460F48FEF777FF51460D48FEF775FF72
:1028C00059460B48FEF773FFBDEC088BBDE8F09F3F
:1028D0000000000000E070400000000000409F4049
:1028E0000000000000407F400000000000806640C3
:1028F0000004004010B5012406E01420FFF7AAFBF5
:10290000E0B2FFF77BFB641C042CF6DD10BD000079
:1029100008B500210091C0F308010B4A91800AE03C
:10292000BDF80010491C89B20091BDF80010B1F546
:10293000FA5F00DD08BD0449098801F08001002923
:10294000EED000BFF6E700000010014038B50446A5
:102950000D4600200090009009E09DF80010605C9A
:10296000FFF7D6FF9DF80000401CC0B200909DF814
:102970000000A842F1DB38BD00B587B04FF4C0605D
:10298000059002208DF818008DF8190000208DF8B0
:102990001A0001208DF81B0005A94548FEF7B2F981
:1029A0000C20059002208DF818008DF819000020E9
:1029B0008DF81A0001208DF81B0005A93C48FEF790
:1029C000A1F94FF44060059002208DF818008DF8B1
:1029D000190000208DF81A0001208DF81B0005A9B0
:1029E0003448FEF78FF94FF4E13001900020ADF844
:1029F0000800ADF80A00ADF80C00ADF810000C208E
:102A0000ADF80E0001A92C48FFF7F4F801A92B48F6
:102A1000FFF7F0F801A92A48FFF7ECF826480088EC
:102A20002548808840F225512348FFF778F823484D
:102A300000882248001D008840F225511F48FFF7FA
:102A40006EF81F4800881E48001D008840F225517E
:102A50001B48FFF764F8012240F225511648FFF7A2
:102A6000A3F8012240F224411348FFF79DF8012208
:102A700040F225511148FFF797F8012240F2255105
:102A80000F48FFF791F8012240F224410C48FFF76C
:102A90008BF801210848FFF751F801210748FFF79B
:102AA0004DF801210648FFF749F807B000BD0000C6
:102AB00000000240000402400010014000440040B9
:102AC0000048004010B591EA030F48BF83F000436F
:102AD00000F13E83841A71EB030C05D2121943EB0B
:102AE0000C03001B61EB0C01DFF824E14FEA1154E9
:102AF000A4EB135C1EEA430F18BF9EEA445F73D039
:102B000023EA0E03DCF1200E21EA045143F4801382
:102B100032D322FA0CFE10EB0E0023FA0CFE41EB2E
:102B20000E01CCF1200E03FA0EFE10EB0E0051F157
:102B30000001B1F5801FCCF1200E32D201EB04511F
:102B400012FA0EF2BDE8104058BF7047401C38BF63
:102B50005FEA420218BF7047002814BF20F001004E
:102B600041F100014FEA410313F5001F38BF7047E0
:102B7000A1F1C04100F0DEBA012A43EB0302ACF13F
:102B8000200CDCF11F0E32BF4FF0000E23FA0CF3C5
:102B900010EB030041EB0451B4EB115FD0D0A1EB7B
:102BA000045101F5801149085FEA300001EB04513E
:102BB0000ED350F1000038BF12FA0EFE08D1BDE866
:102BC0001040C9E7401C38BF5FEA4202CAD1C3E7E0
:102BD000BDE810404FEA410313F5001F38BF7047AE
:102BE000A1F1C04100F0A6BA9EEA445F08D011EA04
:102BF0005E0FBDE8104004BF01F0004100207047A7
:102C0000BDE8104070B500F047FA00BF64FBBE3E5F
:102C10000000E0FF2DE9C04130B4DFF8A0C23CEA7B
:102C2000111418BF3CEA131400F0EC8081EA03058C
:102C30001CEA111444EAD57418BF1CEA131500F0FD
:102C4000C780A4EB05044FF0004545EAC12145EAE1
:102C5000C32341EA505143EA525304F17F7499422D
:102C600004F500344FEAC0204FEAC22208BF904268
:102C700000F09C804FEA13650FF24016765D4FEA34
:102C8000134506FB05F7C7F1807706FB07F74FEA08
:102C9000D737A7FB03687642C8F58038A7FB06CE76
:102CA00038BFA8F1010807FB08E64FF0000EA6FBAD
:102CB000028CE6FB03CEDCF1000CCEF1004E38BFF7
:102CC000AEF1010EA6FB0C584FF000074FF00005C7
:102CD000E6FB0E87A1FB08C6A0FB07CE16EB0E068F
:102CE00045F10005E1FB076515F1E04E7EBFA4F557
:102CF00080345FEA46066D4116F1800745F1000514
:102D00004FEA17274FEA066647EA0567A6F1DE464F
:102D1000B6F1805F4FEA15251FD9384624F0010C23
:102D200005EBC471BCF1FE6F01EB0C1102D8F0BCD5
:102D3000BDE8008124425CBF01F5801E9EEAC47F8D
:102D400002D4F0BCBDE80081244238D4F0BCA1F12B
:102D5000C041BDE8004100F0EDB94FEAD22242EA9D
:102D600043524FEAD323A7FB02864FEAD02040EA22
:102D7000415007FB03661EEA0E0F4FEAD12105FB07
:102D8000026658BFA6EB0056B6EB00564FEA520E4D
:102D90004EEAC37E18EB0E0E56EB530EBDD518EB64
:102DA00002085E417F1C55F10005B6E74FF480151F
:102DB0004FF000074FF000064FF00008ADE7F0BC01
:102DC0004FF0000001F1C04101F00041BDE8008179
:102DD00011EA0C1F0CEA131500D00CE013EA0C1FCB
:102DE00000F025804FF00000F0BC81EA030101F003
:102DF0000041BDE80081F0BCBDE8004181EA03016B
:102E000000F098B9F0BCBDE8004170B500F044F99D
:102E1000097EFC3E00F007B881EA03014FF0000094
:102E200001F00041704781EA030100F083B9F0BC72
:102E3000BDE800414FF0000021497047FFFDFBF95C
:102E4000F7F5F4F2F0EEEDEBE9E8E6E4E3E1E0DEDD
:102E5000DDDBDAD8D7D5D4D3D1D0CFCDCCCBCAC84F
:102E6000C7C6C5C4C2C1C0BFBEBDBCBBBAB9B8B776
:102E7000B6B5B4B3B2B1B0AFAEADACABAAA9A8A869
:102E8000A7A6A5A4A3A3A2A1A09F9F9E9D9C9C9B37
:102E90009A999998979796959594939392919190E2
:102EA0008F8F8E8E8D8C8C8B8B8A89898888878773
:102EB0008685858484838382828181800000FF07E8
:102EC0000000F87F4FEA1153A3F58063D3F11E038E
:102ED000A8BFD3F1200C08DB4FF0004242EAC12228
:102EE00052EA505232FA03F0704709420BD4102BC9
:102EF000C4BF0020704703F5787CBCF1FF3F05D0CC
:102F00004FF0FF3070474FF00000704770B500F091
:102F1000C3F800BF4992248000207047F0E7B0FA60
:102F200080F310FA03F10AD0C3F11D0303F58063A7
:102F30004FEA41504FEA035202EBD12170474FF064
:102F400000007047DFF848C170B51CEA111E1EBFB3
:102F50001CEA13159EEA0C0F95EA0C0F00F06F8027
:102F600081EA030423EA4C134EEAD47E21EA4C1191
:102F700041F4801143F48013AE44A1FB024CA0FB4A
:102F80000365AEF17F7E361955EB0C05A1FB034CB2
:102F90004CF10003A0FB021C16EB0C06654153F13B
:102FA0000003094218BF46F0010613F4007F0BD15D
:102FB0004FEA03314FEA0530340341EA155140EA44
:102FC00016506FF003020AE04FEAC3214FEAC52012
:102FD000F40241EA555140EA56506FF0020202EB0A
:102FE0002E4201EB025585EACE710AD05FEA440C0D
:102FF00018BF24F0004450F1000041F1000120EA24
:10300000D47040F2FE7C624500D270BDA84214BF6D
:103010004FF080444FF04044002E08BF0024BEF122
:10302000806FA8BFA1F1C041BDE8704080F28280EE
:103030004FF0000001F1C04101F0004170479EEAED
:103040000C0F0CEA131518BF95EA0C0F06D04FF0C1
:10305000000081EA030E0EF0004170BD00F01CF884
:103060008900013E00F007B800F009B84FEA430CB0
:103070005FEA5C5C08D081EA030100F05BB84FEACC
:10308000410C5FEA5C5CF6D14FF0000001497047EB
:103090000000FF070000F87F0EF1020E2EF0030E75
:1030A0005EF8046B364205D4012A43EB030515F59F
:1030B000001F12D8012841EB010C1CF5001F0CD891
:1030C0000ED14FEAD17C15F5001F0CEB4C0C0CF126
:1030D000020C08BF4CEBD37C04E04FF0080C01E07D
:1030E0004FEAD37C0CEB4C0526FA05F606F00706F2
:1030F000B6F1040C06D20EEB860CBDE870404CF025
:10310000010C6047DFE80CF0090B02024FF00041B0
:103110004FF00000A1F5002170BD194610460128AE
:1031200051EB010418BFD4F5001484BF002001F056
:10313000004170BD0808A0F500114FEA3101704749
:1031400010B591EA030F48BF83F000433FF5C2ACCE
:10315000841A71EB030C07D212198CF0004C43EB6C
:103160000C03001B61EB0C01DFF8A4E14FEA1154E2
:10317000A4EB135C1EEA430F18BF9EEA445F00F005
:10318000B08023EA6E03524221EA0451C3EB6E037E
:1031900038BF5B1EDCF1200E25D322FA0CFE10EBAB
:1031A0000E0043FA0CFE41EB0E01CCF1200E03FAA7
:1031B0000EFE10EB0E0051F10001CCF1200E29D4CF
:1031C00012FA0EF201EB0451BDE8104058BF7047EF
:1031D000401C1CBFB2F1004F704700280CBF491CB7
:1031E00020F00100704712EB020E43EB030218BF00
:1031F0004FF0010E4EEA4202ACF1200CDCF11E0E43
:1032000054D943FA0CFE10EB0E0051F1FF31CCF112
:103210001E0ED5D50EF1010E12FA0EFE404141EB05
:10322000010101EB445C5FEA5C5C10D910EBDE70DD
:1032300001EB045138BFBEF1004FBDE8104018BF8C
:10324000704700280CBF491C20F00100704730D2A5
:103250004FEAD42C11F5001124F400641BD0B1FA0C
:1032600081F20B3AA41AA41ED2F12003914030FA45
:1032700003F31943904001EBCC71002C01EB045196
:10328000BDE81040A8BF704701F1C0414FF00000F9
:1032900001F000417047B0FA80F310FA03F100D159
:1032A00010BDE41A173C4805C90AE4E701EB0451D4
:1032B00010BD491001EB0451BDE810404FEA300049
:1032C00002E04FF0000170474A0008BF0042F8D00A
:1032D000B2F5001F28BF704701F000414FF0000019
:1032E00070479EEA445F07D011EA5E0FBDE81040C8
:1032F00004BF002100207047BDE8104070B5FFF703
:10330000CBFE00BF40DFF63E83F000411046704721
:103310000000E0FF4FF04070E1EE100A704700003F
:103320004033000800000020A0000000C401000895
:10333000E0330008A0000020680D0000E001000854
:10334000000000000000000001010000000000007B
:10335000000000000000000000000000000000006D
:1033600000000000000000005152636F6E66697239
:103370006D00574C636F6E6669726D00000000004F
:103380000900000000000000000000000000000034
:103390002D005A000000B4000000000000000000F2
:1033A000000000000000000001000000000000001C
:1033B000000000000000000000000000000000010C
:1033C000020304010203040607080900007A030A45
:1033D00000000000000000000102030406070809C5
:040000050800018965
:00000001FF
